:100000000C9435000C9434000C9434000C9434009F
:100010000C9434000C9434000C9434000C94340090
:100020000C9434000C9434000C9434000C94340080
:100030000C9434000C9440000C9434000C94340064
:100040000C9434000C9434000C9434000C94340060
:100050000C9434000C9434000C9434000C94340050
:100060000C9434000C943400189540E040933F0009
:1000700040933D0048E040933E000E944B0018959D
:100080004F9340913F004F930E9484004F914093C3
:100090003F004F911895CF93DF93CDB7DEB70E9405
:1000A0005200FFCFCF93DF93CDB7DEB784E290E06D
:1000B00020E2FC0120830E9461007894DF91CF91BF
:1000C0000895CF93DF93CDB7DEB780E890E0FC01D1
:1000D000108281E890E025E0FC01208386E390E037
:1000E00026E330E0F90120812160FC01208384E8CF
:1000F00090E0FC01118210828FE690E021E0FC018B
:100100002083DF91CF910895CF93DF93CDB7DEB7F2
:1001100085E290E025E230E0F901308120E22327FA
:0A012000FC012083DF91CF910895C8
:00000001FF
