:100000000C9444000C944E000C944E000C944E0042
:100010000C944E000C944E000C944E000C944E0028
:100020000C944E000C944E000C944E000C944E0018
:100030000C944E000C944E000C944E000C944E0008
:100040000C944E000C944E000C944E000C944E00F8
:100050000C944E000C944E000C944E000C944E00E8
:100060000C944E000C944E00260226022602260214
:1000700026022602260226022602260229022B0238
:100080002D022F023102330211241FBECFEFD8E020
:10009000DEBFCDBF0E9450000C9441020C940000C2
:1000A000CF93DF93CDB7DEB70E945700FFCFCF933A
:1000B000DF93CDB7DEB728970FB6F894DEBF0FBE3B
:1000C000CDBF80E090E0A6E5B1E489839A83AB835D
:1000D000BC8389819A81AB81BC81BC01CD010E9426
:1000E0003A02DC01CB018D839E83AF83B8870E94E7
:1000F0008A008D819E81AF81B885BC01CD010E94AF
:10010000610128960FB6F894DEBF0FBECDBFDF9118
:10011000CF910895CF93DF93CDB7DEB785EC90E014
:10012000FC01108284EC90E027E6FC01208381EC46
:1001300090E021EC30E0F90120812860FC0120836F
:10014000DF91CF910895CF93DF931F92CDB7DEB7A4
:100150008983000080EC90E0FC018081882F90E092
:1001600080729927892BB1F386EC90E02981FC01FC
:1001700020830F90DF91CF910895CF92DF92EF927D
:10018000FF920F931F93CF93DF93CDB7DEB72B97DB
:100190000FB6F894DEBF0FBECDBF9B878A870DB721
:1001A0001EB78DB79EB76C0186E08C832C81822FA1
:1001B00090E001979E838D83822F90E02DB73EB70C
:1001C000281B390B0FB6F8943EBF0FBE2DBF8DB75D
:1001D0009EB7019698878F8380E18A8382E08B8324
:1001E0008F81988520E3FC0120838F81988528E703
:1001F000FC0121838A8188508A838A81282F30E0FC
:100200008A859B8502C0969587952A95E2F789870E
:100210008B81E82EF12C898582958F70882F90E054
:100220000E940B02282F8F8198858E0D9F1DFC0147
:1002300020838B81882F90E07C01FFEFEF1AFF0A6B
:100240008985882F90E08F7099270E940B02282FB4
:100250008F8198858E0D9F1DFC0120838B818E5F81
:100260008B838A81882331F619820EC08981882F79
:1002700090E02F813885820F931FFC0180810E94BE
:10028000A30089818F5F898399818C81981770F38E
:100290000FB6F894DEBE0FBECDBE0FB6F8941EBFEB
:1002A0000FBE0DBF2B960FB6F894DEBF0FBECDBFAD
:1002B000DF91CF911F910F91FF90EF90DF90CF9042
:1002C0000895CF92DF92EF92FF920F931F93CF93F7
:1002D000DF93CDB7DEB72D970FB6F894DEBF0FBE14
:1002E000CDBF6A877B878C879D870DB71EB78DB77B
:1002F0009EB76C018AE08C832C81822F90E001975D
:100300009E838D83822F90E02DB73EB7281B390B3B
:100310000FB6F8943EBF0FBE2DBF8DB79EB70196A6
:1003200098878F8380E28A8382E08B838F81988590
:1003300020E3FC0120838F81988528E7FC0121833D
:100340008A8188508A838A81282F30E08A859B851C
:10035000AC85BD8504C0B695A795979587952A95D8
:10036000D2F789878B81E82EF12C898582958F7051
:10037000882F90E00E940B02282F8F8198858E0D88
:100380009F1DFC0120838B81882F90E07C01FFEF73
:10039000EF1AFF0A8985882F90E08F7099270E94B5
:1003A0000B02282F8F8198858E0D9F1DFC012083C5
:1003B0008B818E5F8B838A81882311F619820EC010
:1003C0008981882F90E02F813885820F931FFC014F
:1003D00080810E94A30089818F5F898399818C81AC
:1003E000981770F30FB6F894DEBE0FBECDBE0FB6F1
:1003F000F8941EBF0FBE0DBF2D960FB6F894DEBF4A
:100400000FBECDBFDF91CF911F910F91FF90EF9065
:10041000DF90CF900895CF93DF931F92CDB7DEB7D3
:1004200089838981882F90E0092E000CAA0BBB0BD1
:1004300040E050E02FE030E0841B950B281739078F
:10044000A0F08C5C9F4FFC010C943B02898180637F
:100450000DC081E40BC082E409C083E407C084E4DA
:1004600005C085E403C086E401C080E00F90DF9101
:10047000CF9108950895EE0FFF1F0590F491E02DA0
:060480000994F894FFCF7F
:00000001FF
